8=FIX.4.4|9=211|35=D|49=PMAYOAUTO|56=TRADEWEBLDN|34=34|142=NEW YORK|52=20160222-13:18:59|11=TestOrder07|60=20160222-13:05:55|59=0|55=[N/A]|54=1|38=1000000|48=FR0010850701|22=4|63=0|453=1|448=autopmayo|452=11|40=1|423=1|44=95.5|10=069